:020000040001F9
:1040000000350020C5410100D7410100D941010020
:1040100000000000000000000000000000000000A0
:10402000000000000000000000000000DB41010073
:104030000000000000000000DD410100DF41010040
:10404000E1410100E1410100E98F0100E14101008E
:10405000E141010000000000E55B01002550010086
:10406000E1410100E1410100E1410100E1410100C4
:10407000E1410100E1410100E1410100E1410100B4
:10408000E14101004D6E0100E1410100E14101000B
:10409000D96E0100E141010097790100E141010081
:1040A000E1410100E14101000000000000000000CA
:1040B0000000000000000000000000000000000000
:1040C00000F002F800F032F80CA030C808382418CC
:1040D0002D18A246671EAB4654465D46AC4201D140
:1040E00000F024F87E460F3E0FCCB6460126334240
:1040F00000D0FB1AA246AB4633431847C45A00000F
:10410000E45A00000023002400250026103A01D3C1
:1041100078C1FBD8520700D330C100D50B6070477F
:104120001FB5C046C0461FBD10B510BD05F072FBDF
:104130001146FFF7F5FF00F06DFD05F08AFB03B4B3
:10414000FFF7F2FF03BC05F0BDFB0000401E00BFFF
:1041500000BF00BF00BF00BF00BF00BF00BF00BF67
:1041600000BF00BF00BFF1D170470000401E00BF7C
:1041700000BF00BF00BF00BF00BF00BF00BF00BF47
:1041800000BF00BF00BFF1D17047000070B5054609
:104190000C46164602E00FCC0FC5103E102EFAD288
:1041A000082E02D303CC03C5083E042E07D301CC4E
:1041B00001C5361F03E021782970641C6D1C761E32
:1041C000F9D270BD0A48026803210A430260094817
:1041D000804709480047FEE7FEE7FEE7FEE7FEE707
:1041E000FEE7000005480649044A064B70470000F8
:1041F0002405004011420100C1400100002D0020B3
:1042000000350020002D00201D491C480860704723
:104210001C48018CC9B2012917D1828C120714D114
:10422000028D1206130F03D1838D1B061B0F1ED0A8
:10423000120F012A03D1838D1B061B0F17D0032AEF
:1042400003D1828D1206120F11D001290ED1818C5B
:1042500009070BD1018D0906090F042906D1808DAC
:104260000006000F02D10849012088607047084A03
:1042700006495160D113074A9161EBE70024F4002D
:1042800000200020C00F00F000060040DFFF07C044
:1042900000050040006C004082B0002100910191B7
:1042A000FE49884218D8002814DDC107C90F01D083
:1042B00001220092421C491C8A4209DD019A801A9F
:1042C000401C009A891C521C521C00928842F8DC47
:1042D00002B070470021EDE70028F9D90099491C88
:1042E00000918142FAD302B07047F1B5EB4E82B033
:1042F000002480250298284206D0012739461D2037
:1043000000F063FEE64805E0002701211D2000F0D3
:104310005CFEE44800940194B04249D8002819DDBD
:10432000C107C90F01D001220092421C491C8A42D8
:1043300008DD001B401C009A891C521C521C009274
:104340008842F8DC00211D2000F03FFE002F03D042
:10435000D44802E00021E8E7D14800940194B0423B
:104360002ED8002822DDC107C90F01D001220092FA
:10437000421C491C8A4208DD001B401C009A891C13
:10438000521C521C00928842F8DC6D10002DB1DCEA
:10439000C5480121001B0094401C0194009A891C0F
:1043A000521C521C00928842F8DCA2E70021DFE791
:1043B0000028C7D90099491C00918142FAD3C1E76E
:1043C0000028E2D90099491C00918142FAD3DCE728
:1043D00030B403464B22520201209C1A934246D02D
:1043E00019DCB24A9C1A93423AD00ADCB04A9B1AB2
:1043F00030D09A1A31D04B235B019A4227D1AD4A73
:1044000041E04B239B01E41A2CD0E31A2DD09342B8
:104410001DD1A94A37E0A94D631BAC422DD008DC61
:10442000A74BE41A25D0E31A25D093420FD1A54A11
:1044300029E0A54A9A1822D0A44BD21822D0E12311
:10444000DB029A4203D1A24A0A6030BC704730BCFA
:10445000002070474F22120315E09D22120312E044
:104460009C4A10E03B2212040DE09B4A0BE09B4A61
:1044700009E09B4A07E09B4A05E09B4A03E00122D2
:10448000920600E0994A0A6030BC704710B5984C1B
:104490001346E07621770A461946964805F010F84B
:1044A000217F00229448891C02F03EFA21460886AA
:1044B000012010BD70B58E4DE87E04F0A3FE287F6C
:1044C00004F0A0FE287F8B4E002400280BD9305D1D
:1044D00004F098FE002801D0002070BD641C287FE5
:1044E000E4B2A042F3D882480446008E2034C0B221
:1044F00004F088FE208A000A04F084FE012070BDCA
:10450000F8B57B4C0246E51C012848D027463846C2
:104510007A491D3005261B37022A27D0032A0CD0E2
:104520000024062A02D1042004F06CFE2C75200A17
:104530006875200CA875200E2FE04A7E0323E376D1
:104540006F49227704F0BCFF217F00223846891C86
:1045500002F0EAF966490886FFF7ACFF2E75300ACB
:104560006875300CA875300EE875F8BD4A790223DD
:10457000E3766449227704F0A3FF217F00223846C6
:10458000891C02F0D1F95A490886FFF793FF2E756E
:10459000300A6875300CA875300EE875F8BD01203A
:1045A0002070287500216975A9750846F5E7F0B5F2
:1045B000006883B0002823D1684604F01DFE00285F
:1045C0001ED1514E142031180A78002710464A781F
:1045D0004E4D120210438A78C9781204104309061E
:1045E0000843F41E06280BD20100794409794918C2
:1045F0008F440208132530B468460078FFF780FF27
:1046000003B0F0BD68460078607002206F703075AE
:1046100000217175B17508469DE06846017868789B
:104620002218401C9170C0B2687061788142E7D84E
:104630000320307500217175B17508468BE068461E
:10464000007868800420307500217175B175F175AE
:1046500003B0F0BD00F0DDFC00286FD02C48807A5C
:1046600080076BD06846007869880002401868802F
:10467000617800221E48891C02F056F9E8806178B2
:1046800000221B48891C02F04FF96988884259D1E1
:104690006578132D56D814211E483DE0FFFFFF7F9B
:1046A00020A10700A086010040420F0080250000E5
:1046B000B004000000B0130000F0750000EE02002E
:1046C000004B000000E0D70170B3FFFF90C8FCFF73
:1046D000A4DFBE0E0050270000A04E0000509D0039
:1046E00000F0EB0000903A0100B0AF0300705F07EC
:1046F000702200208D2200208B22002040220020EA
:104700005A2200204622002073220020042000208C
:10471000F021002045220020019004F02EFFFD48EA
:104720002A464571A11CFC4804F0CAFE1422FB482D
:10473000019901F04FF9042005E0FFE7082004F09B
:1047400061FD02E0052004F05DFD3775380A7075E3
:10475000380CB075380EF07503B0F0BD68460078BF
:10476000EF4C04280FD0052803D0FFF7C9FE03B093
:10477000F0BDA07C032806D2FFF79CFEA07C401C65
:10478000A07403B0F0BDA774DFE700B5E5488BB0B7
:10479000806901A9FFF71CFEE34A0323916B506B6C
:1047A000D26B029001980492039105900020694613
:1047B0000885DE480690DE48202108900AA8079167
:1047C00009910090DB4A06A902A804F045FC0028E4
:1047D00002D000200BB000BD01200BB000BD10B511
:1047E000D649D548C8610E22D549D648FFF7CEFC38
:1047F000CC4900200875012010BD70B50D46144647
:104800000646114601F0BCFA00280AD0304601F0F5
:10481000CDFA012804D0032802D0022802D006E0F5
:10482000002070BD22462946304604F049FE012092
:1048300070BDF8B501F0F3FD00287CD1202001F017
:1048400087FA002875D0B74E1024BF4D2146304658
:1048500001F096FA00286ED0304601F0A7FA012840
:1048600069D0032867D0022804D122462946304661
:1048700004F026FEB54D04240126B54F21462846F6
:1048800001F07EFA002856D0284601F08FFA012860
:1048900051D003284FD0022804D122463946284659
:1048A00004F00EFEAB4D0424AB4F2146284601F028
:1048B00067FA00283FD0284601F078FA01283AD05C
:1048C000032838D0022804D122463946284604F06D
:1048D000F7FD3446984E0825A04F2946304601F092
:1048E0004FFA002827D0304601F060FA012822D084
:1048F000032820D0022804D12A463946304604F045
:10490000DFFD974D2146884F0126284601F038FAF1
:10491000002810D0284601F049FA01280BD00328BE
:1049200009D0022804D132463946284604F0C8FD91
:104930000120F8BDFFE70020F8BD10B501F0A3F895
:1049400001F0E7FB642804D17D21C900012001F0BA
:104950004AFB10BD10B501F0DFFB002811D17148F2
:10496000006901F076F801F0D4FB65280AD001F067
:10497000D0FB642805D1694900204881014601F037
:1049800032FB10BD01F0DEFB10BD10B565480069BB
:1049900001F05FF810BD38B5044672480090234618
:1049A0001A33228BE18A20881D4601F075F86E4883
:1049B0000090228BE18A20882B4601F06DF86B482D
:1049C0000090228BE18A20882B4601F065F8684828
:1049D0000090228BE18A20882B4601F05DF84F4839
:1049E0000090228BE18A20882B4601F055F861481F
:1049F0000090228BE18A20882B4601F04DF85E481A
:104A00000090228BE18A20882B4601F045F85B4814
:104A10000090228BE18A20882B4601F03DF838BDBA
:104A2000FFB504464F4883B015460E4684420AD16E
:104A3000002E08D1102D06D16030069904F040FDFB
:104A4000384801F00BFA4848364F844212D1002E04
:104A500010D1042D0ED12A466846069904F030FD87
:104A6000009847491438884204D80098386137487C
:104A700001F0F4F93D4884420CD1002E0AD1012DF9
:104A800008D12A463F48069904F01AFD387D3E4970
:104A900001F0A9FA3648844215D1002E13D1042D15
:104AA00011D1543006992A46019004F009FD01986D
:104AB00001F0D4F96946B869FFF78AFC002802D0F2
:104AC0003249009848622B4884420BD1002E09D10C
:104AD000142D07D82A462E48069904F0F1FC2D49DA
:104AE000012008702448254F844201D1002E53D064
:104AF000BC420DD1002E0BD1012D09D106980078B2
:104B000001285AD0002103480171001D01F0A6F9C7
:104B100007B0F0BD4022002046220020F0210020F6
:104B20009022002020220020309B010080210020C4
:104B3000A0210020AF4501003C22002014200020CD
:104B4000449B010034200020539B010030220020B0
:104B5000349B010038220020389B01003C9B01005F
:104B600044220020C0210020CC210020D821002098
:104B7000E4210020FC210020082200201422002033
:104B8000EC27000034220020983A00000025004065
:104B90005922002004200020062D0AD1AD482A46C3
:104BA0000646069904F08CFC304601F057F900F0F7
:104BB000BEFBBC42A0D007B0F0BD0121A3E770B599
:104BC000A54D2878002824D0A4490A7810464A78B0
:104BD000120210438A78C978120410430906084368
:104BE00017D19F49A04C4A7E0720E0769D49227745
:104BF0009E4804F065FC217F00229D48891C01F03D
:104C000093FE21460886FFF755FC002801D00020BE
:104C1000287070BD8CB00321162000F0B9F9162061
:104C200000F0C9F90028FAD09248FFF78FFA9248AD
:104C3000884CC4610E2291499148FFF7A7FA914E22
:104C400000253575904A012790498B48039200F062
:104C500005FC00281FD001A9B069FFF7B9FB8C4AF9
:104C60000323916B506BD26B0692049001980591CF
:104C700007906846058187480890874820210A9058
:104C800002A809910B910090844A08A904A804F095
:104C9000E3F9002802D06520FFF727FB01F039FA7D
:104CA000642830D000227E4B11467E4800F054FD2F
:104CB00000287CD07C4910207F4D029101907BA37D
:104CC0002A4600967D49764800F07FFD00286FD087
:104CD0007B480621019102907AA32A4600947D49DF
:104CE0006F4800F072FD002862D07B490398029162
:104CF00000907AA32A4601977E49694800F065FD35
:104D0000002855D07DE056480079002802D00124C3
:104D1000640201E00124E402002802D00125AD0272
:104D200001E001252D03002802D00120400300E00E
:104D30007148494900228880594B114600F00CFD0A
:104D4000002878D058480290102122460220019174
:104D50000243009655A35949514800F036FD0028FA
:104D60006CD0664A04200292019022462A430A200F
:104D700063490243009163A368494948039200F0E4
:104D800024FD00285AD0674800902A46082064492C
:104D9000024302910197154663A36749404800F01A
:104DA00014FD00284AD0654A0420654901E042E02C
:104DB00044E002920091019062A366493848039A48
:104DC00000F003FD002839D0644800906249224673
:104DD0003220142702910243019761A364493048AD
:104DE00000F0F3FC002829D062496348029100904A
:104DF00062A32A4601976549294800F0E6FC00288D
:104E00001CD000F014FC00281BD000F042FC00284D
:104E100017D000F0E1FB002816D000F0C6FA0028F9
:104E200015D0306900F015FE002810D000F0F1FB1D
:104E30006B20FFF75AFA6720FFF757FA6820FFF751
:104E400054FA6620FFF751FA6920FFF74EFA6A20FC
:104E5000FFF74BFA3C22002004200020872200208C
:104E6000402200205A220020702200208D220020A3
:104E70008B22002050C3000014200020449B01001E
:104E8000342000202022002044220020334801004A
:104E9000309B010080210020A0210020AF450100AF
:104EA0000C20002001200000C021002053656E73FB
:104EB0006F724944000000000A1800001020000032
:104EC0000822002053656E736F72506173736B65B7
:104ED00079000000182000001422002053656E7332
:104EE0006F724D69746D52657175697265466C615A
:104EF000670000001920000002200000CC210020E3
:104F00003022002053656E736F72426561636F6E6D
:104F10004672657175656E637900000011200000AE
:104F2000D82100203422002053656E736F724C65C7
:104F3000645374617465000013200000E4210020B4
:104F40003822002053656E736F72436F6E66696717
:104F50000000000015200000F02100204522002064
:104F600053656E736F724461746155700000000088
:104F700016200000FC2100205922002053656E738A
:104F80006F7244617461446F776E000017200000F7
:104F9000124A890080008018016070470F4A800023
:104FA00009028018491C016070470C4A02218000E8
:104FB0008018016070470A49096901228240114244
:104FC00001D0012070470020704701228240002953
:104FD00001D0044800E00448026070470007005018
:104FE00000050050080500500C050050FEE710B504
:104FF00001461D20FFF7E9FF10BD7047FC4ABFF3D3
:105000004F8F51621062FC49FA48C860BFF34F8F5E
:10501000FEE7F748F9498088884201D001207047AF
:1050200000207047F6480168002967D010B50021BC
:105030000160F4488068F44A012180B251604B213C
:1050400009014843F14904F09CFA41004018F04935
:1050500080B2884201D3642136E0EE4A904209D9F9
:10506000081A3A214843642104F099FA6421081A85
:10507000C1B229E0E849884209D9101A18214843E9
:10508000A02104F08CFA2A21081AC1B21CE0E34ADC
:1050900090420AD9081A0C214843FF212D3104F00F
:1050A0007EFA1221081AC1B20EE0DD4988420AD9FF
:1050B000101A06214843FF21553104F070FA0621E9
:1050C000081AC1B200E00021D64802F0E5FE00282F
:1050D00013D0082811D0D44988420ED0D349884231
:1050E0000BD0C34AAA21BFF34F8F51621062C2494D
:1050F000C048C860BFF34F8FFEE710BD7047F0B4E3
:10510000CB4801680129FCD0CA4901204860BD494B
:105110001A224A60BA4A002717600860072027DF72
:10512000B34CB44DB44E002808D0C521BFF34F8F07
:1051300061622062F560BFF34F8FFEE70321072015
:1051400028DF002808D0C821BFF34F8F616220629A
:10515000F560BFF34F8FFEE7072023DF002808D05C
:10516000CB21BFF34F8F61622062F560BFF34F8F99
:10517000FEE7A3480760A44901200860F0BC70471F
:105180009B489E498088884200D0B8E7704770B538
:10519000974C0968974D984E206900290ED0012937
:1051A0001CD101F0A5FF002818D0F021BFF34F8FCC
:1051B00061622062F560BFF34F8FFEE70F2100228E
:1051C000090401F02BFF002808D0EB21BFF34F8F1B
:1051D00061622062F560BFF34F8FFEE770BD30B4AF
:1051E0000068002811D1824C3B21A08876DF00287E
:1051F0000BD0FF210F31BFF34F8F616220627E49D8
:105200007C48C860BFF34F8FFEE730BC7047FF2279
:1052100077491E32BFF34F8F4A620862764975485C
:10522000C860BFF34F8FFEE7714874498088884299
:1052300003D0132176DF002801D000207047012021
:10524000704770B5054602F0DDFE284602F075FA9B
:10525000674C2078002803D02946724802F04CFDA4
:105260002988162943D00ADC102914D011291BD013
:10527000132918D1704A0021A0887FDF09E019297D
:105280003BD0502944D052290DD100221146A0888C
:10529000A9DF05461DE0A888A080A068002802D0EC
:1052A0000068002832D170BDA078002804D000200A
:1052B000A07003F0B4F901E003F093F80546002074
:1052C000C043A080A068002803D04068002800D018
:1052D0008047002DE7D0FF207730BFF34F8F256246
:1052E000606245494348C860BFF34F8FFEE7A1683D
:1052F000A888CA69012180DF70BDA8790028FBD188
:10530000A0680028F8D080680028F5D0804770BDDC
:10531000A1680029FBD0C9680029F8D0A81D8847DA
:1053200070BD3349C969002900D00847704730492A
:1053300001208870704710B500F0EBFF10BD70B50C
:10534000002350223D49082002F0F4FA284C294D50
:10535000294E002809D083218900BFF34F8F616255
:105360002062F560BFF34F8FFEE7354802F003FB84
:10537000002809D021210901BFF34F8F616220620B
:10538000F560BFF34F8FFEE72E4802F0FCFA0028CD
:1053900009D085218900BFF34F8F61622062F560DB
:1053A000BFF34F8FFEE7012070BD10B526480221E4
:1053B000016000210171012242710281234AC26011
:1053C00001618182D41E816162788283204A0262F7
:1053D00081848162C162016341631E480176203885
:1053E00001F0FEFC002837D0E060002010BD000076
:1053F000442000200400FA0500ED00E0FFFF00005B
:10540000007100400075004000700040FF03000084
:10541000B80B0000540B0000B40A0000880900001B
:10542000340800006426002003300000013400002E
:1054300000740040007300406C200020C425002050
:10544000435201003753010014260020472000205A
:105450007C26002034260020012010BD002802D028
:10546000002A01D100207047F0B5FD4C85B00D46F3
:10547000A060164600211D20FFF790FD00211D2091
:10548000FFF7A3FD0020F74B07220521009001F054
:1054900027FD00280BD0FF21A531BFF34F8F61629C
:1054A0002062F249F048C860BFF34F8FFEE7F04A30
:1054B0000121F04801F089FD00282ED1FFF73FFFC0
:1054C00000282CD0A847002829D0EB4AEB4D116BBF
:1054D000D06A526B03920291019068692F04401CBC
:1054E00005D0386981B2686904F04BF800E078694A
:1054F0006946401E08716869401C05D0386981B250
:10550000686904F03EF800E078696946C01E487199
:1055100001A803F0F3F8002803D0E060002005B0F4
:10552000F0BD0020014668460171A06801252030C9
:1055300003F0A4FFA16882B201A820317CDF00281B
:105540000CD1680278DF002808D1CB498868C96887
:105550000290039102A87ADF002803D0E0600020C7
:1055600005B0F0BD00F0B7FD0028F9D000F02FFD28
:105570000028F5D000F0CDFD652803D100F063FDD3
:105580000028EDD000F0C5FD07221E27BC49DF230F
:105590001024652814D03078002811D00F80887826
:1055A0002843FD25284002252843E32528400825D7
:1055B000284318408870CA700C71012005B0F0BDF6
:1055C0000F8088782843E12528400C25284318407F
:1055D0008870CA700C71F0E7A74810B50146103109
:1055E0001EC988B00394029301920091426A016A35
:1055F000806A069005920491684602F06CF80028D3
:1056000004D09749C860002008B010BD012008B040
:1056100010BD10B5924C00F056FCA06840690028FF
:1056200000D080473DDF0028F5D0E06010BD30B5E8
:1056300091B04021684603F0A2FF92A1684602F0B3
:105640006DFC92A106A802F069FC92A108A802F0E4
:1056500065FC0120014608A81031017700200146B1
:1056600008A84177684603F00AFB7D49002803D06B
:10567000C860002011B030BD4878884A83009D186A
:105680000124AC70864CD452401C4870012011B0EB
:1056900030BD30B5724C85B02078002802D0012092
:1056A00005B030BD60780A2804D37E48E060002051
:1056B00005B030BD7048014638312EC903950293BC
:1056C00001920091806C04900120014668461031DF
:1056D0004173012001466846103181730020014664
:1056E0006846C1730120014668461031017469465D
:1056F0006D4802F02CFB002806D16C4A01216C4851
:1057000001F063FC002803D0E060002005B030BD4C
:105710000F2100220904206901F080FC00280BD031
:10572000CB218900BFF34F8F616220624F494E4801
:10573000C860BFF34F8FFEE76178584D8B000122A0
:10574000581982705B48E852491C617022701046FB
:1057500005B030BD00207047F8B5414C1E000A4628
:10576000074606D060780A2807D34E48E06000203C
:10577000F8BD5148E0600020F8BD8100474B401C57
:10578000CD186070002A05D0A91C104662DF0028E1
:1057900009D101E00120A8702F806A462946012026
:1057A000A0DF002802D0E0600020F8BD288830701B
:1057B000000A7070A878B070000AF070684600881F
:1057C0003071000A70710120F8BDFFB591B01B9FC8
:1057D0001C9D144606002CD0002D2AD026480168B6
:1057E0000191002102910391049105910691079185
:1057F000089140680090002B06D01846039303F0F0
:105800003DFE694608824882E1070120002903D055
:105810006A46117A01431172A2070221002A12DAA4
:105820006B461A7A0A431A72A20506D531221A70FB
:1058300009E00B482049C160ACE0220501D52122D6
:1058400000E011221A7062073ED56B461A7A0423D3
:105850001A436B461A72620530D531225A7033E012
:1058600044200020A42200200400FA0500ED00E0FE
:10587000235301005C200020749B010000100010E5
:105880006C20002052656C6179720000312E302E40
:1058900032000000312E302E300000007C26002027
:1058A0000A18000010270000642600208151010022
:1058B000542000200F18000011270000E20401D539
:1058C000212200E011225A70220710D56B461A7A65
:1058D00008231A436B461A72620502D531225A70A8
:1058E00005E0E20401D5212200E011225A7062068F
:1058F00005D56B461A7A40231A436B461A72220664
:1059000003D56B465A7A02435A72E00503D56A46BC
:10591000507A08435072E00605D56946087A10218E
:10592000084369460872A00605D56946087A202111
:10593000084369460872A006800F0DD001A80790A1
:105940006005800F02D06946312004E0E004800F3A
:1059500002D0694621204871F078B17800020843EE
:1059600008A9887169461298888409A80C900D913D
:105970000F87002048878F871A98109070793179A7
:10598000000208430AAB0CAA02A9A2DF002804D037
:10599000D149C860002015B0F0BD6846008D287060
:1059A000000A68706846408DA870000AE870684672
:1059B000808D2871000A68716846C08DA871000A40
:1059C000E8712C72200A68720020A872E872012027
:1059D00015B0F0BD77B405460E4640782978000230
:1059E00084B00843334606AA0021A4DFBA4C00283D
:1059F00026D1A288B948824227D0E87AA97A000243
:105A00000843C107C90F8007C00F08431DD00020FD
:105A1000009001900290039068782B780002184360
:105A20006B461880002901D0012000E00220987008
:105A300006A80290194603961046A6DF002804D057
:105A4000E06007B070BC0020704707B070BC012058
:105A5000704710B5A24C0021217061602172E16095
:105A60007D21C90048439F4903F08BFD2082B4206B
:105A70006082204673DF002803D09749C860002069
:105A800010BD012010BD74DF002803D09249C8600A
:105A90000020704701207047F8B5069C0546002C91
:105AA00073D06078277806028B483E438068AE4208
:105AB00005D10569002D65D02046A84762E06179CF
:105AC000267909023143A9425FD1022A5AD1E17AEB
:105AD000A57A0A022A43D107C90F00919107CF0F77
:105AE00059781B7809021943CE07F60F8907CD0FA5
:105AF000009933468B430AD001210A43A272110A4E
:105B0000E1728269002A02D0012120469047009864
:105B1000B04310D0E07AA17A000208434008400068
:105B2000A072000AE0726C4880688269002A02D084
:105B30000321204690472846B843022600280FD06C
:105B4000E07AA17A000208433043A072000AE072B2
:105B5000614880688269002A02D00221204690476D
:105B6000AF430FD0E07AA17A00020843B043A0729D
:105B7000000AE072584880688269002A02D0042135
:105B8000204690470120F8BDFFE70020F8BD00281F
:105B900002D000218172C172704731DF70474E48D8
:105BA000C068704750494020086050494A68FF2348
:105BB0001B049A4303239B05D2184A604C49086092
:105BC00070474C4940200860704709049200114317
:105BD000494A8000801801603F4848494361D00528
:105BE0004860704710B53C484069804744490020F0
:105BF000C8633D494020086010BD70B5364C16465C
:105C00000D460022A16900281AD0002D18D0E061AD
:105C1000084601F06DFAFF23690CE803F533002212
:105C2000C01851415A00002303F07AFB0146324666
:105C3000A06901F0F3F9002806D0E060002070BDF3
:105C40000846E26101F054FA012070BDFF21C90548
:105C5000C84201D309024840704770B515460A464C
:105C600004462946104603F0FBFEFF21C905C84241
:105C700001D309024840216803F0C6FE09D928462D
:105C8000616803F097FE04D32846A16803F0BCFEC8
:105C900001D2012070BD002070BD10B4891A00D55A
:105CA0004942437804781B02234399420DDAC178B4
:105CB0008378090609141943914206DC4379017976
:105CC000180600140843904202DA10BC0120704705
:105CD00010BC00207047000044200020FFFF00009F
:105CE000502600207102000080E200E000E400E0A5
:105CF00000E100E080E100E00007005000630040A8
:105D0000406100409848007B704705291FD170B55D
:105D1000954C00252068002A04D02560A0602573DA
:105D2000657370BD401C8007800F20600DD0207B04
:105D30000028F5D100F0F0F9032803D000F0ECF9C9
:105D40000228EDD100F0EBF9EAE72573F2E770479E
:105D500010B5864988800820C880854808600020E2
:105D600010394860886008600873487381497F482B
:105D700000F0A9FB002801D0002010BD012010BDBB
:105D800070B57D4C0B462188784A0D01AA18106128
:105D900093827848183200F007FC002801D00020D8
:105DA00070BD2088401C2080012070BD70B56F49F7
:105DB0000A69824201D1714C22E00B6A834201D10F
:105DC0006F4C1DE00B6B834201D16E4C18E00B6CE5
:105DD000834201D16C4C13E00B6D834201D16B4CBB
:105DE0000EE00B6E834201D1694C09E00A6F5F4CF3
:105DF000824201D1703403E08034226882420BD1A8
:105E0000002C09D021460831A28800230D4600F05D
:105E100063FC002812D101E0032070BDA38898071D
:105E200005D09807800F0421081AC01883B20422F5
:105E30002946584800F050FC002801D0012070BDD0
:105E40004D4855494068884201D0022070BD00206D
:105E500070BD4549002288688A607047424A117BBC
:105E600001292ED041490B69834201D1103122E032
:105E70000B6A834201D142491DE00B6B834201D181
:105E8000404918E00B6C834201D13F4913E00B6D90
:105E9000834201D13D490EE00B6E834201D13C4962
:105EA00009E0096F8142314901D1703103E080314D
:105EB0000B68834205D1002903D001205160107383
:105EC000704700207047F8B5274C607B002824D12C
:105ED00020464168236808460427274A08300126DF
:105EE0000025002B1AD0012B1CD0022B2CD0032B09
:105EF00013D18B88990704D09907890F791AC9188B
:105F00008BB2254951600422224900F0AEFB0028E3
:105F100028D020682560A0602573F8BD237B002B66
:105F2000FBD026608B88990704D09907890F791ACE
:105F3000C9188BB20021C94351600422154900F0F1
:105F400094FB0028E5D10DE08A88930704D09307DD
:105F50009B0FFB1A9A1892B20968002300F085FB88
:105F60000028D6D16673F8BDA4260020B4260020F0
:105F70000B5D0100BC26002074200020C4260020F8
:105F8000D4260020E4260020F42600200427002048
:105F90001427002078200020AAAADE4510B5314839
:105FA0004168012909D0022906D101780122514016
:105FB00001701D20FFF709F810BD002141608068C5
:105FC00001F096F800211D20FEF7FFFF10BD10B56F
:105FD000254A0121254800F0F8FF002801D00020C3
:105FE00010BD012010BD70B51E4C064660680D4600
:105FF000022820D000206060A06801F079F8002815
:1060000019D10120002E18D0606001211D20FEF75B
:10601000DCFFFF23690CE803F5330022C01851416F
:106020005A00002303F07CF901460022A06800F02A
:10603000F5FF002805D0002070BD00211D20FEF7CF
:10604000C4FF012070BD10B506480221416049031C
:106050000022806800F0E2FF002801D0002010BD7F
:10606000012010BD7C2000209D5F010084200020C5
:1060700010B5404C206901F03BF8FFF7A2FD6068C5
:10608000642808D06420A0603B48FFF7E7FE0028A2
:1060900003D0032002E06520F5E70220E06010BD98
:1060A00010B5364B032202211620FFF78EFD314C2E
:1060B000012100220904206900F0B0FFFFF7B4F8C5
:1060C0000120E06010BDBFF34F8F2E492C48C860FF
:1060D000BFF34F8FFEE710B5042226492648FEF78E
:1060E0008CFB00280AD02348274A8168416001219F
:1060F000264800F06AFF002801D0002010BD0322CE
:10610000234B11461620FFF760FDFFF74BFD0120E2
:1061100010BD1848406870471648C068704710B5F1
:106120001448C068022809D003280AD1BFF34F8F52
:1061300014491348C860BFF34F8FFEE71548FFF7B7
:106140008DFE10BD10B50B4CE068002811D1FFF793
:1061500038FD6068642808D06420A0600648FFF716
:106160007DFE002803D0032002E06520F5E7022031
:10617000E06010BD882000209020002071600100A8
:106180000400FA0500ED00E0C7600100982000203F
:10619000A16001008C200020FFB581B00F46FE4DAC
:1061A000049B03990646EA68194303208E46002A99
:1061B00001D0E96803E0002911D00121E960039AC8
:1061C000F64B92001C040092072978D20A007A4408
:1061D00012799218974473051E314D75840002217F
:1061E000ECE75869401C05D0206981B2586903F07A
:1061F000C8F900E060692169401E89B248432169FD
:1062000009048A0C216989B2794351DF002856D1EB
:10621000022153E0384650DF002850D1039900296D
:1062200001D003214AE00499002904D131780429DE
:1062300040D1072142E0042140E05869401C05D0CC
:10624000206981B2586903F09CF900E06069216916
:10625000401E89B241432069039A80B2784351DFDE
:1062600000282CD104990029E5D13178042924D0C3
:1062700020E05869401C05D0206981B2586903F0BC
:1062800080F900E060692169401E89B24843718845
:10629000421800981018226992B27A435218009955
:1062A000531801461846049A51DF002807D1317867
:1062B000042902D0052101E001E00621E96005B0D2
:1062C000F0BD2069009980B27843401871888A082F
:1062D000316951DF0028F2D171460029EDD1A8E7DC
:1062E0005869401C05D0206981B2586903F049F90A
:1062F00000E060692169401E89B24843216989B282
:1063000003F03FF950DF0028D9D10721E96005B03B
:10631000F0BDA3498A78012A7DD1F8B500249E4AB0
:106320008C70D368082B07D0022817D0032802D11D
:106330000D2000F0E1FAF8BD02280AD01470487868
:106340000028F8D000F03DFA0400F4D0112C5ED102
:1063500001E0D460F3E700F0CFFAF8BD90481425CF
:106360000178694308188C498A88521C95B28D803F
:106370000279001D022A05D14688A902B14201D343
:10638000012600E00026052A01D1072B03D00021B9
:10639000042A02D003E00121FAE7072B03D00027EB
:1063A000042A02D007E00127FAE74088AA028242C5
:1063B00001D3002B30D000203943014331431CD09E
:1063C000754D2046EC6000F097FA7548142201786C
:1063D000514309180C71CC800C6103224C61CA60D6
:1063E0000C81AC804178491E41700178491CC9B2CA
:1063F00001701E2901D31E390170694840780028B8
:10640000ABD000F0DEF90400A7D0112CA3D000F02F
:1064100073FA20469FE701E00120CDE77047F8B509
:1064200000205D4C5E4DA080E06028706870A87010
:106430000146032314224A4352191071D08010617F
:10644000D3605061491C10811E29F3D30020534FA3
:10645000608078693E04401C05D0306981B278695B
:1064600003F08FF800E070693169001F89B248437A
:10647000A06000204B49A080086008818881488185
:106480000861088388834883086208858885488571
:106490000820E0607869401C05D0306981B27869D5
:1064A00003F06FF800E070693169401E89B248431B
:1064B000316989B203F065F850DF002802D101216B
:1064C000A9702170F8BDF8B5044633480F4600782E
:1064D00000281ED0002C1ED0002F1CD020680028C1
:1064E00019D001252D07A688286980B2864222D8B6
:1064F000102E20D3E088009000281CD02748416946
:10650000491C0AD02969406989B203F03AF801466A
:1065100004E00820F8BD0E20F8BD69692869491E0D
:1065200080B21D4A4143009B906873431B189942F7
:1065300001D3B10701D00720F8BD5188032919D034
:10654000184B0E013960F2187860506027689F512F
:10655000A3881381E3885381A388E48800266343DA
:10656000761C2C69B6B2A4B29C4205D22C69A4B2A6
:106570001B1B02E00420F8BD00232C69A4B22018E4
:106580002C69A4B29C42EBD9034B491C98609681BC
:1065900059800020F8BD00009C2000200010001051
:1065A00044270020A029002070B4DC4B1B78002B6E
:1065B00019D000281AD0002A18D00368032B0FD254
:1065C000D74C1E01A559002D0AD045683019048901
:1065D000614369184589406865432818884208D88E
:1065E00070BC0720704770BC0820704770BC0E203C
:1065F00070471360516070BC00207047F8B5C74CFD
:106600002478002C1DD000291DD000281BD0046840
:10661000032C14D22501C24C6659002E0FD02D191F
:106620006E892C896D68664376194568AE4206D935
:10663000002A04D0944202D3D618A64205D90720D6
:10664000F8BD0820F8BD0E20F8BD0C461C43A40779
:1066500001D1AC0701D01020F8BD009313460A46C3
:106660000146022000F021F9F8BDF8B5AB4C2478C2
:10667000002C1DD000291DD000281BD00468032C3D
:1066800014D22501A64C6659002E0FD02D196E8903
:106690002C896D68664376194568AE4206D9002A92
:1066A00004D0944202D3D618A64205D90720F8BDDB
:1066B0000820F8BD0E20F8BD0C461C43A40701D1EC
:1066C000AC0701D01020F8BD009313460A460146DE
:1066D000052000F0EAF8F8BD70B5904C2478002C45
:1066E0001DD000291DD000281BD00C68032C14D20B
:1066F0008B4D24012E59002E0FD065196E892C89DF
:106700006D686643496875198D4206D9002A04D020
:10671000944202D3D518A54205D9072070BD0820A0
:1067200070BD0E2070BD04461C43A40701D18C0728
:1067300001D0102070BDC91802F0C2FE002070BD4B
:1067400038B5044675480D460078002816D0002C50
:1067500016D0206803281AD2714900010A58002A6D
:1067600015D040184389018942684B4360689B18E3
:1067700083420CD9830705D0102038BD082038BDCE
:106780000E2038BD801A02F0FCFE002901D007203F
:1067900038BD0020024600902B462146042000F020
:1067A00084F838BD5D490978002906D0002806D054
:1067B0005C494978016000207047082070470E202E
:1067C0007047F8B5574914230A780F205A435418D4
:1067D0005249227926698F88241D022A24D0012556
:1067E0002D07042A33D0052A1DD1286981B23046ED
:1067F00002F0C7FE0146A38828699A1980B248436F
:10680000101A820860881818861928694B1C80B2F3
:106810005843801B83082046FFF7BEFC002802D1A6
:10682000404901228A70F8BDB80262882169121AB3
:106830000918A3883018181801239B029A4202D223
:10684000920851DFEAE7FF22013251DFE6E7A36851
:10685000334819010818018942894068B04203D1C0
:1068600060885143814218D0042B16D0286981B228
:10687000304602F086FE0146286980B24843301A4D
:10688000820828694B1C80B2584363889B19C01A40
:1068900083082046FFF780FCC0E7286981B23046B4
:1068A00002F06FFEC01950DFB8E7F8B51D4C069E28
:1068B00065781E2D1ED027787D19EDB21E2D01D3CF
:1068C0001E3DEDB214277D432D1928716A610868B9
:1068D00049682961E860EB802E81A17800200029B9
:1068E00004D1FFF76EFF112800D100206178491C08
:1068F0006170F8BD0420F8BD38B50246094814237C
:106900000178074C59430818C36801791B01E45802
:10691000C388009343690C30A04738BD9C200020F9
:10692000A0290020442700200346002A37D01088E1
:10693000002933D05B1ECA070ED0020A00020243B0
:10694000587850400206120F42401003504082B265
:106950001006C00C50405B1C49081FD0020A000200
:1069600002435878491E50400206120F424010035D
:10697000504080B20206D20C4240100A120210436C
:106980009A789B1C42401006000F50400203424080
:1069900092B21006C00C50400029DFD17047014868
:1069A000C6E70000FFFF0000FFB585B005460220E6
:1069B000864608980E9C029100902078019000274E
:1069C00028883E4600283FDD6868B10040180288EC
:1069D00069460A8240884882002203A904A864DF2D
:1069E00000285CD16846017B714520D1002F01D081
:1069F000002200E002222078891841181F294DD872
:106A0000002F07D1401CC0B2411C009B029A21708C
:106A10001A540127217800980A1803A904A864DFF2
:106A200000283CD169462078097B401820702888CE
:106A3000761CB042C8DC002F06D021780198019A5C
:106A4000081A0099401E8854079802901020864624
:106A500008980E9C009020780190002728883E46D8
:106A6000002842DD6868B1004018028869460A8241
:106A700040884882002203A904A864DF00280ED1C0
:106A80006846017B714523D1002F01D0002200E030
:106A900002222078891841181F2902D90C2009B038
:106AA000F0BD002F07D1401CC1B2481C009B029AC8
:106AB00020705A540127217800980A1803A904A8C5
:106AC00064DF0028EBD169462078097B40182070EC
:106AD0002888761CB042C5DC002F06D021780198AA
:106AE000019A081A0099401E8854002009B0F0BD90
:106AF000F7B582B0002605461670006814460028D7
:106B000023D02879039F801C1F287DD81D2069462B
:106B10000880B81C7DDF002877D12868022805D1BD
:106B2000684600881D2801D8092107E02879082136
:106B3000002801D01D2801D968460088421C3A70FF
:106B400079702178801C08182070687900281CD082
:106B50002078039F001D1F2856D8684679DF00283B
:106B600053D121780322481C20707A5421781922AD
:106B7000481C20707A54217868460088C91908702A
:106B8000000A48702078801C2070298900291ED0B6
:106B900001208446EA680398002A7DD022785318A1
:106BA0009B1C1F2B30D81346521C2270491CC15409
:106BB00022786746511C2170875423782A89181837
:106BC000E96802F07DFC2078297A40182070286955
:106BD000002815D00021415622788C46D01C0399FC
:106BE0001F2811D8501C022320708B5422780A23AE
:106BF000501C20708B5423786246581C2070CA5455
:106C0000A88A00280CD001E075E075E028460094C1
:106C1000062202211430039BFFF7C6FE06006BD14B
:106C2000A88B002809D028460094072203211C3095
:106C3000039BFFF7B9FE06005ED1A88C002809D09F
:106C400028460094152214212430039BFFF7ACFE44
:106C5000060051D1E86A002840D0217884468E464B
:106C6000891D03981F2946D861460B88062B13D32C
:106C70001922D201744F934201D9BB420CD1614613
:106C80004988062908D3914201D9B94204D1BB42AF
:106C900005D0B94203D000E080E08B427ED8714637
:106CA000491C052372462170835422781223511CFB
:106CB0002170835422786146098812181170090ADC
:106CC00051702178891CCAB2227061464988101817
:106CD0000170090A41702078801C2070286B002800
:106CE00031D0009000792178801CC0B2831CCB1871
:106CF000039A1F2B02D90C2005B0F0BD0B46491C8E
:106D00002170401CD0542178FF23481C207053541C
:106D100000980188207880180170090A4170207855
:106D2000801CC0B2207000998B88002B0BD0896822
:106D300000294FD080181A4602F0C2FB0098217833
:106D4000007908182070284620300190007E002825
:106D50003DD003990091696B00293ED000260028A0
:106D600034D931460C225143686B009A4718387960
:106D70002178C01C505420781622401CC0B22070CC
:106D800000990A542078401CC1B22170009A3888BA
:106D900089180870000A4870207800E01AE0801C0A
:106DA000C0B22070BA88002A0AD0B968002914D06D
:106DB000009BC01802F084FB2078397940182070BD
:106DC0000198761C007EF6B2B042CAD80026304642
:106DD00005B0F0BD072005B0F0BD072005B0F0BD3F
:106DE00070B50D4692B000216A46117007241171EA
:106DF000002812D00189002905D0C168002902D0DD
:106E00000978490702D4204612B070BD02A9FFF7E5
:106E10006FFE0028F8D102AE00E00026002D0BD056
:106E200028890028EFD101AA0AA92846FFF760FEA9
:106E30000028E9D10AAA00E0002268460379017817
:106E4000304672DF12B070BDFFFF0000F8B5FB499D
:106E50000020086048608860C860F94908604860A0
:106E6000F84EF468601C36D0F74800274068316956
:106E7000401A05022D0A28204443706822189068A1
:106E8000A84215D873692D1AC719546A002B0AD065
:106E9000116AD0699847002808D0FF21EBA255312C
:106EA000FEF7ACF802E0D169106A8847601CE2D1B5
:106EB000B178F078814206D1401CC0B2F07002284F
:106EC00001D10020F0700006EC49800D0F50012028
:106ED000EB4900050860F8BD10B500F0F6F910BDEB
:106EE000FFB581B00A9F1C4615460E46980769D12A
:106EF000002C67D00120E34940040860E2494010BB
:106F00008860E2498860E249012048602F20FDF74F
:106F10002DF9CC4821464761067044600020002EC0
:106F200013D00A46283A1039F30703D0283190626B
:106F300008702832730808D02827906278541065AA
:106F40005031503208705B1EF6D128214E43311962
:106F5000BC4C03226270A16008700A464870183267
:106F60008D704A6018232E4608725E434872B2182C
:106F70008D72CA6008744874B2188D744A61002119
:106F8000C943E160A070E0700121C24809050160B9
:106F9000C1480268C023120A12021A430260BF48A5
:106FA0000160A94901988860BD4A1068FF231B024F
:106FB000984303239B031843106048682061002016
:106FC00005B0F0BD072005B0F0BD70B49D4D6C68F4
:106FD000002C12D0002A13D0002811D02D780023C5
:106FE000002D07DD28265E43A659002E0BD05B1C22
:106FF000AB42F7DB70BC0420704770BC08207047C0
:1070000070BC07207047282501265D4366512C1966
:10701000E2616160036070BC00207047F0B4894B8E
:107020005D68002D0CD01C78A04201D2052902D247
:10703000F0BC07207047282444432E59012E02D06B
:10704000F0BC0820704764196468012C14D0002635
:10705000944D6C68E405E40D1ED0103C0ED5270756
:107060003F0F083FBF08BF007D19ED69A407E40E7C
:10707000E5402C06A40F0BE00E46E9E7A5088A4F71
:10708000AD00ED192D68A407E40EE5402C06A40F11
:10709000012C26D0032C26D002248C469B68E100CC
:1070A000CC186378A7781D465B1C9F4200D1002353
:1070B00027789F4219D0182167684D43791914D059
:1070C00001250D6048606048406888600E61604638
:1070D0004A61C8606A49637028050860F0BC0020F6
:1070E00070470024D9E70124D7E7F0BC042070479B
:1070F000544A5168002909D01378984201D30720D7
:10710000704728234343C958012901D008207047FC
:10711000F0B4644B59680424C905C90D00291CD07A
:1071200010390CD50D072D0F083DAD08AD00EB183B
:10713000DB698907C90ECB401906890F09E08B0866
:10714000594D9B005B191B688907C90ECB40190676
:10715000890F01291FD003291FD002219268C9007D
:107160008A18517895780B46491C8D4200D1002130
:10717000167800258E4212D0182756687B43F318E4
:107180000DD002241C60586051703D49E004086035
:107190002846F0BC70470021E0E70121DEE72046E9
:1071A000F0BC704770B4274A5068002815D03D4B9A
:1071B0005868C105C90D042000291FD010390FD50A
:1071C0000C07240F083CA408A400E318DB69890716
:1071D000C90ECB401906890F0CE0082070BC70471F
:1071E0008B08314C9B001B191B688907C90ECB40CB
:1071F0001906890F012959D0032959D00221926813
:10720000C9008A18517894780B46491C8C4200D1E9
:107210000021157800248D42E0D01826556873436C
:10722000EB18DBD003201860001F5860517001205C
:10723000134900050860204670BC704740110140AA
:1072400000110140AC200020001501402E2E5C2EC4
:107250002E5C2E2E5C2E2E5C2E2E5C536F75726370
:10726000655C6170705F636F6D6D6F6E5C61707097
:107270005F74696D65722E6300000000C4200020F9
:1072800000E200E080E100E0401301400013014013
:107290000010014080E200E014E400E000E100E0C2
:1072A00010E400E000ED00E000E400E00021A6E7CB
:1072B0000121A4E7E5494968016000207047401AB0
:1072C0000002000A106000207047F0B5002095B061
:1072D000C043DF4903900A690A92C86807908B7817
:1072E000CC78A34211D05B1CDBB28B70022B01D196
:1072F00000238B701B06D74C9B0DE35809939A18FB
:107300001202120A0A61012201E000220992D04908
:1073100010920F90497804914A1E0692D2B20592BB
:10732000CB4A002993680B9352680C9260D01446A4
:107330000E930599CA000E9955182B7869789942D1
:107340004ED0182159436A685B1C5118AA78DBB2E9
:107350009A4200D100230A68022A02D0032A3CD1B3
:1073600031E04E682821714309198C46097E0029B5
:1073700033D002460146471C21D0B14207D00A460D
:10738000282151430919496A4F1CF6D117E0002FF3
:1073900015D08A4203D1282670430019406A282656
:1073A000714309198F687243496A121951624A1C64
:1073B00005D02822514309198E68F2198A600021EC
:1073C0006246117609E0411C07D000212822504373
:1073D00000190176406A421CF8D169789942B0D10F
:1073E00005994A1ED2B205920029A2D19849C860D7
:1073F00097480F99C068884201D0012100E0002120
:107400000F911099002926D000240A9E099B401C48
:107410001FD08F4A2820D1680C9D484340198568A9
:107420009D4202D9E91A816013E05B1B2C190025EB
:1074300085600576456AD5604269002A07D037190C
:107440003F023F0AC7600261039A426203916D1CCA
:10745000DFD101200F90039810907D48069AC068F4
:1074600004990A90D2B20592002970D078490C9BF9
:10747000096908910B990E910E99D200551881E077
:107480001099491C06D0109A28215143C9184C6AFA
:1074900010941EE0297818224A436C68491CC9B22E
:1074A000A4182970AA78914201D10021297062683C
:1074B000282151432668C918012E67D10E7E002E5F
:1074C00064D1A668CE60E6680E6126694E61646983
:1074D0000C62CE68089C604F341B2402240ABC4214
:1074E00003D20E69A4198C600AE0089CA41B240234
:1074F0000E69240AA64201D9341B00E000248C60E6
:107500000024CC600C6101240C76A41E4C6228215E
:107510005143C9188C46411C14D061468C682821FF
:107520004143C91889688C420ED828214143C918A3
:1075300089680C1B28214143C9188C606146486248
:1075400010461FE010461DE00146049003E02AE0CB
:107550000491716AE41B4E1C0BD028264E43F6188A
:10756000B768A742F4D328274F43FF18BF683F1BD3
:10757000B7606646B460644661620499282461433A
:10758000C9184A621099491C00D079E729786A78AD
:107590009142FAD105994A1ED2B20592002900D033
:1075A0006AE72B49C8602A490A98CC68844202D10C
:1075B0000F98002838D0079A2848294B651C35D0E9
:1075C00028256C430C9D6419A668204C64680F69DB
:1075D000521CE11B0D022D0AED1C002A0DD1586032
:1075E000204948600121204A400010601F4A106075
:1075F0001F4801602F20FCF7B9FDB54200D2354687
:10760000E81900021B49000A086010494968001B7C
:10761000091B0902090A0002000AC91C814203D998
:10762000012015494004086015B0F0BD0121134A3E
:107630004904116098600B4988600D490120486039
:107640002F20FCF793FD15B0F0BD000000150140A0
:10765000AC200020C4200020FFFF7F0000000100BC
:10766000401301400013014080E200E000E100E02F
:10767000001001404015014000E200E080E100E020
:1076800038B58349834A488890420FD04A78824C63
:10769000521CD2B24A70237B934208D37F4975DFD4
:1076A000002803D0A169002900D0884738BD0025F3
:1076B0004D70217C002907D03B2176DF002803D0C4
:1076C000A169002900D0884761690029EED0684689
:1076D0000095884738BD70B53CC86F493CC1846887
:1076E000436802688C604B60694C00250A60257015
:1076F0001038006800280CD0018821814188618100
:107700008188A181C188E18164487ADF00280DD198
:1077100003E062487BDF002808D10020C04360807E
:1077200065705F4A00215F48FFF74FFC70BD10B5E0
:1077300057484068FFF7DCFC10BDF8B5564C078889
:107740000026534A811CE389102F16D015466D6818
:10775000112F22D0122F37D0502F1DD1C188801D5C
:10776000994219D1018B022916D1C17E827E08026D
:107770001043C007C00F0DD11CE08088508088895D
:107780001082C8895082088A9082488AD0825670B6
:10779000002B01D100F04BF8F8BD0020C043508011
:1077A00056702846FFF7A4FC0028F5D0A1690029EF
:1077B00008D1F8BD2846FFF79BFC0028F9D0A16945
:1077C0000029F6D08847F8BD88881082C888508282
:1077D000088990824889D08200F029F8F8BDF8B570
:1077E0002B4D01882981418869818188A981C188BF
:1077F000E9812A487ADF060010D12B48012441880C
:107800000838028891420BD34088814208D8224828
:107810004169002902D06846009488473046F8BD87
:107820002C701E49688875DF06466C70F6E7F8B55F
:107830001D48194D4288083803880026144C696990
:107840009A420AD34088824207D80120002902D0F8
:107850000090684688472670F8BD2078002805D03B
:107860000029F8D0684600968847F4E76078002839
:107870000BD0A96800226068FFF7D0FB0028EAD08F
:10788000A9690029E7D08847E5E76968F2E70000C1
:10789000CC200020FFFF0000D0290020D4200020B1
:1078A00081760100D0200020DC20002010B50846A1
:1078B0001146FDF79BFB10BDF8B53F4C2078002822
:1078C00037D02069002807D00026E068002805D0BE
:1078D0000025002E04D013E00126F6E70125F8E785
:1078E00068464EDF052806D0002806D033A269215D
:1078F000FDF784FB04E0012602E021690098884737
:10790000002D12D1608869460880A06860DF0528D4
:1079100006D0002806D029A28021FDF76FFB04E0E5
:10792000012502E0E168A0688847002ED8D0002D2C
:10793000CFD0F8BD002901D10720704730B48C07A3
:1079400002D0072030BC70471B4CA16062802949DF
:10795000636010DF0028F5D101202070162023DF9E
:1079600030BC704711DF002801D0012100E0002168
:10797000114A11707047002803D00F49C8600020D9
:1079800070470E207047002803D00B490861002083
:1079900070470E20704710B507484068002808D08F
:1079A0008047002804D0FF2104A23331FDF726FBD5
:1079B00010BDFFF781FF10BDE42000202E2E5C2EAD
:1079C0002E5C2E2E5C2E2E5C2E2E5C536F757263F9
:1079D000655C73645F636F6D6D6F6E5C736F66740F
:1079E0006465766963655F68616E646C65722E6359
:1079F00000000000AD780100F0B5B74883B0016920
:107A00000091B64A0021D1630191B5494A78002A14
:107A100073D9019814214843B149019C4A68896887
:107A2000821801200346A3400B425ED0D168032791
:107A3000CB4300994B4011680B4000219C463F040A
:107A400005468D402B4212D0D6682E4203D1012428
:107A500064042E4301E03C46AE43D660A14D8E0047
:107A600075192E68BE432E602E6826432E60491C71
:107A70002029E5D398490969009B594027D00B4339
:107A80000093D168CC4311685C400C400021034650
:107A90008B401C4215D0D5681D4203D101267604C7
:107AA0001D4302E0032636049D43D5608D4B8D00B7
:107AB000ED182F6803231B049F432F602B6833436B
:107AC0002B60491C2029E2D3604620438446009B5A
:107AD00060469168984301406446506823401840CE
:107AE00003460B4301D01269904701987C49401C22
:107AF000C0B20190497888428BD303B0F0BD002911
:107B000001D08A0701D00720704710B5744A0B4690
:107B1000516010700021517091601421414318464A
:107B200001F02DFD00207049C04388606F4840215E
:107B300001606F484268FF231B049A430B04D2186C
:107B400042606C480160002010BDF0B48446644877
:107B50004568002D08D0002B09D044780678B4423F
:107B600008D3F0BC04207047F0BC08207047F0BC7C
:107B7000072070470F46142617436643AF51761906
:107B80003361B260716061460C70611C41701421F8
:107B900000204C430122534B03273F042E5911462A
:107BA00081400E4206D08100C9180E68BE430E60A7
:107BB0000E680E60401C2028F0D3F0BC00207047F7
:107BC000F0B4474C6268002A05D06178884205D33A
:107BD000F0BC07207047F0BC082070473F490025E3
:107BE000CD633D4909698C46A168002903D1012371
:107BF0003D4EDB077360012686400E431421484347
:107C00008118A660CD60032500212D04861801246B
:107C100013588C40234212D06346234201D02B4696
:107C200004E00123F7685B042743F7602D4C8F00C5
:107C30003C192768AF43276027681F432760491C0A
:107C40002029E4D3F0BC00207047F0B4244A5568E2
:107C5000002D05D05178884205D3F0BC072070472D
:107C6000F0BC08207047142200214243012403275E
:107C70003F04AE5823468B401E4207D0194E8B005E
:107C80009B191E68BE431E601E681E60491C202989
:107C9000EFD3134984408868A043886003D1012052
:107CA0001149C0078860F0BC002070470C4B5A682F
:107CB000002A04D05B78984203D30720704708203D
:107CC0007047142358438018034A12690068024021
:107CD00000200A607047000000050050406100402D
:107CE000F8200020000700500063004080E200E020
:107CF00000E400E000E100E008B50A88102A1AD08C
:107D0000112A1AD0502A1BD1027D002A18D0CA8805
:107D10004389891D9A4213D10A8B022A10D1026825
:107D2000002A0DD0CA7E8B7E11021943C907C90FE4
:107D300007D0002106E0898801E00021C943418283
:107D400008BD0121009102686946904708BDF0B561
:107D5000054693B0086828600020C043688208790F
:107D60002875FF20287401270E46684687736449EA
:107D700081812A1D03A93846A0DF00287ED1287DF5
:107D8000002400280DD001200146684610310194DE
:107D90000171717B41718179F92001406846891C2C
:107DA0008171059406940794089409940A9469468D
:107DB0000B94087D02210843694608752A7DEF214E
:107DC000002A02D01022104300E008406A461075D5
:107DD000287D002800D001A80A90012268468272FE
:107DE000484B03810094B37B0370F37B437080782E
:107DF000F9231840F723801C18400F4638404108EB
:107E0000490068468170317B017402A80C90684675
:107E10000E940F940D9002874487828704A81090D7
:107E2000A888AB1D0CAA05A9A2DF002832D1B06832
:107E300000282DD0012069468872334808810094BB
:107E4000307C0870002048708878F9210840F721BC
:107E5000801C08403840400840006946887011A8DE
:107E6000B16800F055F802A90C9169460E940F9480
:107E70000D9108874C87888711A800E00AE01090D0
:107E80002A46E8880E320CA9A3DF002802D100E0C0
:107E9000EC81204613B0F0BD73B485B0044669464A
:107EA000227C097E00208A4223D001256846058273
:107EB00021740026E08806AB04AA3146A4DF00281E
:107EC00017D1608A1149884216D0207D002813D02E
:107ED000009601960296684603960582E188018025
:107EE0008570868004A8029006A80390608A69467F
:107EF000A6DF07B070BC704707B070BC08207047A1
:107F00000F180000192A000008290000FFFF0000D8
:107F10000A780270497841700220704770B50446B3
:107F20000D46084601F0AAFA2080656070BD000089
:107F300030B5FF4C0546207983B00A2802D30420CF
:107F400003B030BD002805D1002211461046FEF7CF
:107F5000EBFCA0816A462179F648FEF725FB002854
:107F6000EED104234C2229466846FEF747FB002841
:107F7000E6D1F14A4C212846FEF7D6FCEF49A08114
:107F800042182079EE4980000A504118002304224B
:107F90006846FEF733FB0028D2D12079401C2071BF
:107FA000002003B030BDE24A00209070D0705378BA
:107FB0000146002B25DDF0B46820E24C484300194F
:107FC000447A64070AD5D478DF4D0778E600AF55C8
:107FD00007461E377519641C6F60D4704224245CF8
:107FE000022C09D094780778D84DE600AF55751962
:107FF0004230641C68609470491C9942DCDBF0BC20
:1080000070477047F0B5CA4F04463878D04D83B0FA
:10801000002802D1A968082088472088C94ECD4B86
:1080200014287DD01BDC102830D0112879D01328DB
:1080300013D1207AC00710D0B87902210843B87153
:108040001868401C09D0C44A0020114658667C318B
:10805000D06748608860C860086103B0F0BD172829
:1080600075D0BE49182873D05228F6D11868401C24
:1080700004D0B879C20701D0800761D5002211462B
:108080007889A9DF002861D103B0F0BDA848A18894
:1080900041810020AF4FC04338600722A11DB04886
:1080A00001F00EFA00207866607BC10713D040080B
:1080B000042804D2C100A4484056042803DBA96860
:1080C000032088471EE06821484381196822A1489F
:1080D000FCF75CF816E0964800248178002911DD51
:1080E0009A4FA0490091E000C01940680622401C48
:1080F000009901F096F900281BD08D48641C807807
:108100008442F0DB93480168491CBDD0884A0021B5
:10811000D171117269680029B6D00122009201E084
:10812000CCE009E002786B461A71C08FD8806846AF
:108130004FE0E0003856C6E70020B87103B0F0BD4C
:10814000586E002805D0142804D90320A6E00AE0C0
:1081500015E1002182B27889A9DF002850D10120E1
:10816000387203B0F0BDA079A41D0028F9D1B87908
:10817000C007F6D01868401C2ED00120F8713222BA
:1081800021461F46181D01F09BF9E088F8873868E2
:1081900068214843801901F0F2F9682138680A46DD
:1081A000484380196B49FBF7F1FF6A48FFF7C0FEAF
:1081B000042877D0002801D0A96888476968002979
:1081C000CFD00320009038786A461071F88FD080A5
:1081D0006846884703B0F0BD554AE18857780020CB
:1081E000002F11DD682242439219D28F8A4208D1B2
:1081F00068214843811968225648FBF7C7FF0F20C2
:108200004CE0401CB842EDDB0094042F01D3042065
:1082100044E0214632221C46181D01F051F9009815
:108220004349C088E0870020276060666820784363
:108230007F1C4F70801968224649FBF7A7FFFFF7A4
:10824000B2FE01203A490022C871394811464089DE
:10825000A9DF002822D13F48FFF76AFE042802D098
:1082600000281BD10BE06968002917D0042000907A
:1082700020786A461071E08FD08068468847696828
:108280000029A7D00020009020786A461071E08F66
:10829000D0806846884703B0F0BD03E0A9688847EE
:1082A00003B0F0BD6968002986D0042000903878BA
:1082B0006A461071F88FD08068467EE77A78E18947
:1082C0000020002A1ADD682343439B19DB8F8B4271
:1082D00011D168214843811968221E48FBF756FFD7
:1082E0000120F87100222049788981DF0400D7D06D
:1082F000A96888473EE0401C9042E4DB1B48E188C7
:1083000001802189418061898180A189C180E189C1
:108310000181218A418100221146788981DF00286C
:1083200001D0A9688847002211467889A9DF1FE09B
:1083300004210020142100201021002000002453DB
:10834000602C0020802A0020402C0020202C0020BF
:108350000C2A0020182A0020EC290020682A00207E
:108360005A2A00205B2A0020222A00204E2A0020C0
:10837000040095D0A9682046884703B0F0BDA279D3
:108380001007000F120901280FD00228F5D1002A8A
:10839000F3D0B87901242043B871586E1E460028E6
:1083A00007D0142806D9032009E0012AF1D803B028
:1083B000F0BD002182B27889A9DF002802D0A96827
:1083C000884700E03C7269680029F0D002200090E4
:1083D00030786A461071F08FD0806846884703B0C5
:1083E000F0BDF0B5FE4F83B0387800287ED0FD4850
:1083F000FD4C0068401C36D01420694608806A464F
:10840000FA497889AADF002871D1F64869460568DB
:10841000C56409884166002D6ADB7878854267DA91
:10842000F879002806D06820684300194C22ED49ED
:10843000FBF7ACFE387A002813D068204543EC489F
:108440002B1905467835866FC06FEA68A968DE6427
:108450009A6559651865AA69696928695A6619662D
:10846000D865FFF7A0FD002211461046FEF75CFA22
:10847000694608807878002500280DDD28466821A7
:10848000484300196A464C21FEF74EFA69460880B7
:1084900078786D1C8542F1DB0888B989884216D04E
:1084A00019214901D348FEF74BF9002845D138710D
:1084B0000546787800280ADD682068430019FFF730
:1084C00037FD002839D178786D1C8542F4DB002215
:1084D00011461046FEF728FA69460880787800258C
:1084E000002812DD29466820414302E027E024E00D
:1084F00028E008196A461C214C30FEF715FA694637
:10850000088078786D1C8542ECDB0888F989884200
:108510004DD0FF214131B848FEF712F900280CD1A7
:10852000787105467878002841DD6820684306198F
:1085300078794C360A2808D3042003B0F0BD08200F
:1085400003B0F0BD032003B0F0BD002805D1002228
:1085500011461046FEF7E8F9F8816A467979A6488F
:10856000FEF722F80028EED104231C22314668468B
:10857000FEF744F80028E6D1A04A1C213046FEF759
:10858000D3F99F49F88142187879002381009D48EA
:108590004250091804226846FEF730F80028D2D16C
:1085A00078796D1C401C787178788542BDDB00209D
:1085B000C0438C4978810860C86400204866F8711F
:1085C000387203B0F0BDF8B5864C606E002801D05B
:1085D0000820F8BD14206946088081486A4683490E
:1085E0004089AADF0028F4D120686946E064682247
:1085F0007D4B09884243D21861667D4C174623465D
:108600007833E46F4C37DE689D6871C718695B6921
:1086100013665166D0657C4800F09AFAF8BD704840
:108620000178002901D10820704710B50021417060
:1086300001714171C1708170192149016D48FEF7C6
:108640007FF8002804D1FF2141316B48FEF778F80C
:1086500010BD10B50B46411C14D0614949788842C1
:1086600010DA002B0ED0682148435F4941184220A0
:10867000405C022806D007221846423100F020FF55
:10868000002010BD072010BDF0B45549CB78002B59
:108690000CD05E4C5E4D00221946D600361997006C
:1086A0007668491E521CEE510029F6D14C498C784F
:1086B000002C0CD04E4D00222146564ED700BE193C
:1086C00097007668491E521CEE510029F5D10471BD
:1086D000002C01D0464900E0002101600373002B0B
:1086E00001D04B4900E000218160F0BC00207047C0
:1086F000100002D04849896808477047F0B5044621
:10870000806899B0002839D05021684681800A21BC
:10871000C1804248009037496846FDF7D4FE0028E2
:108720002DD120206946888033496846FDF7CBFE6D
:10873000002824D12E48A3686268216883624262BF
:10874000016268212C3000F01AFF00202549C04347
:108750000860014622480026418146700671467134
:1087600086712D48204F8078002821D01921490199
:108770002048FDF7E5FF002803D007E0072019B0E7
:10878000F0BDFF2141311C48FDF7DAFF0028F6D18A
:108790001348002146703246C94330466823584387
:1087A0003950C019761C4266C164042EF5DBECE03A
:1087B0000B4C0B25207902AE002805D10022114672
:1087C0001046FEF7B1F8A08116AA21790948FDF7F5
:1087D000EBFE00283AD10023042216A915A81FE0B9
:1087E00004210020182A0020802A0020682A002066
:1087F000EC290020142100201C210020122100203F
:1088000000002453702C0020642A0020402C0020FB
:10881000FC290020202C00200C2A0020F1860100D9
:10882000FDF75AFF002811D11598E749020C8A423A
:1088300009D187B204234C2216A93046FDF74CFF1C
:10884000002803D10BE0401C2ED0284605282BD051
:10885000002894D16078029E86420CDC0EE0DB4A50
:108860004C213046FEF760F8A081B84203D1207950
:10887000401C2071EEE7284619B0F0BD6820314653
:108880004143D3484C220818074602A9FBF77EFC57
:108890006078864205D100217966491E401CF96442
:1088A0006070C0B2042885D360780026002853DDAC
:1088B000607902AF002805D1002211461046FEF76C
:1088C00033F8E0810AAA6179C248FDF76DFE0028FD
:1088D00019D1002304220AA909A8FDF7FDFE0028EA
:1088E00011D10998B849020C8A4209D185B20423F2
:1088F0001C220AA93846FDF7EFFE002803D10BE041
:10890000401C29D00B20052826D00028B4D160783F
:10891000029981420CDC0EE0AF4A1C213846FEF77A
:1089200003F8E081A84203D16079401C6071EEE752
:108930000B2019B0F0BD68225143A54A761C891856
:1089400002AAACCA4C31ACC1089D079B069A8D6047
:108950004B600A608642ABDB61780420431A002B2F
:1089600011DD682041439A48002508180146024657
:1089700064314C306C1E14600D60046068306831E6
:1089800068325B1EF7D1FFF70EFB9448012101709E
:10899000002019B0F0BD914A1378002B07D00029B0
:1089A00007D00B885278934205D20C2070470820DC
:1089B00070470E2070470A800028FBD030B4002199
:1089C000002A09DD824C68234B431B194D00DB8FC5
:1089D000491C43539142F6DB30BC00207047F0B590
:1089E0007E4B83B0197800293CD05A780021002AA8
:1089F0003FD9774C68254D432D19ED8F854234D1F1
:108A000048B2411C35D0C5B2521E954217DA6820D3
:108A10002F4647433E19311830466822FBF7B6FB14
:108A2000E059401EE051F06C411C01D0401EF06442
:108A30006A486D1C4078EDB2401E8542E7DB674D09
:108A40006821687848430019683800F098FD687814
:108A50001921401E687049016148FDF771FE002828
:108A60000AD00EE0082003B0F0BD491CC9B2914203
:108A7000C0D3052003B0F0BDFF2141315548FDF7BB
:108A80005FFE0028F6D128716871064668780028D4
:108A90000CD93046682148430019FFF749FA0028ED
:108AA000E8D1761C6878F6B28642F2D3002600063A
:108AB000000E3CD068207043071968794C370A28AB
:108AC00002D3042003B0F0BD002805D100221146D6
:108AD0001046FDF729FFE8816A4669793D48FDF7B0
:108AE00063FD0028EED104231C2239466846FDF7B9
:108AF00085FD0028E6D1384A1C213846FDF714FFD1
:108B00003849E8814218687900238100364842508C
:108B1000091804226846FDF771FD0028D2D1687952
:108B2000761C401C68716878F6B28642C2D3FFF7A3
:108B30003AFA002003B0F0BD28490A78002A05D08F
:108B40008979C907C90F0170002070470820704754
:108B500030B5224C0546607983B00A2802D3042040
:108B600003B030BD002805D1002211461046FDF7A4
:108B7000DBFEE0816A4661791648FDF715FD0028A5
:108B8000EED104231C2229466846FDF737FD002854
:108B9000E6D1114A1C212846FDF7C6FE1149E081A5
:108BA00042186079104980000A50411800230422BD
:108BB0006846FDF723FD0028D2D16079401C607122
:108BC000002003B030BD000024530000102100201D
:108BD000802A00201C2100201221002004210020D6
:108BE0001421002000002453702C0020F0B58FB019
:108BF0001D4614460E00074604D17AA26D210020BE
:108C0000FCF7FCF9002C04D176A26E210020FCF7C1
:108C1000F5F90020009001900290039004900590D7
:108C2000694606900A7802210A4369460A700122C1
:108C300008A98A7069460F8407902A780A776A78AB
:108C40004A77897FF9221140F722891C1140EF22CF
:108C500011404A08520069468A7708A9099107A974
:108C60000A910B900C9069468C85C8850C866A48E1
:108C70000D9609AA0088149BA2DF0FB0F0BD30B595
:108C800085B0044601206946887164488880624A3C
:108C900001A90120A0DF00287ED1228825463C358D
:108CA000002A08D05E4800902B465E486168FFF7B6
:108CB0009DFF002870D12289002A08D05A480090D0
:108CC0002B465A48E168FFF791FF002864D1228AB9
:108CD000002A08D0564800902B4656486169FFF795
:108CE00085FF00287CD1228B002A08D052480090B2
:108CF0002B465248E169FFF779FF002870D1228C9A
:108D0000002A08D04E4800902B464E48616AFFF773
:108D10006DFF002864D1228D002A08D04A480090B7
:108D20002B464A48E16AFFF761FF002858D1206BC3
:108D3000002829D0027869460A720188FF221202AF
:108D400011400A0A69464A72FF2201681204114062
:108D50000A0C69468A7201682B460A0E6946CA7275
:108D600002790A73027A4A7301890A0A69468A7388
:108D700080680822000CC8733548009002A9354865
:108D8000FFF734FF00282BD1606B00280BD032494D
:108D9000009102792B4600E022E001682F48FFF79E
:108DA00025FF00281CD1A06B002818D00278694646
:108DB0000A7242884A72120A8A728288CA72120A37
:108DC0000A73C0884873000A8873254800902B46B0
:108DD000072202A92348FFF709FF002800D100203D
:108DE00005B030BD2E2E5C2E2E5C2E2E5C2E2E5C01
:108DF0002E2E5C536F757263655C626C655C626C91
:108E0000655F73657276696365735C626C655F64E8
:108E100069732E6300000000242100200A1800005E
:108E200026210020292A00002E210020242A0000CB
:108E300036210020252A00003E210020272A00009C
:108E400046210020262A00004E210020282A00006A
:108E500056210020232A00005E2100202A2A00003B
:108E600066210020502A000000B5F94983B0012096
:108E7000C860F849486003200090C9686846884780
:108E800003B000BDF0B500220327F34DF1490124E2
:108E9000EF4E83B005280DD203007B441B79DB180D
:108EA0009F44020A743A4100486801283BD00228D6
:108EB00000D14F6003B0F0BD4868002805D00328FA
:108EC000F8D10220486003B0F0BDE34804220260FC
:108ED0003460E248C268806882421AD048680D4611
:108EE000022800D0B46002A9DC4800F004FA00288F
:108EF00005D0F4606C6000976846E96843E0D849A3
:108F0000802088606A46137AD34AD36102226A605D
:108F1000D8E74C6003B0F0BD4868012809D00228AA
:108F200007D00328F6D14A60F46074602A6003B069
:108F3000F0BDCA48C268806882421FD0C5484068F8
:108F4000022800D0B46002A9C44800F0D4F9002877
:108F500008D0F460BF494C600097C96868468847EC
:108F600003B0F0BDBE49802088606A46127AEA618B
:108F7000B84B02225A60486003B0F0BDF4604C6008
:108F80000097C9686846884703B0F0BD4868012863
:108F9000FAD1B0484068022800D0B46002A9AF48B6
:108FA00000F0A9F90028DDD0D3E7F8B50546A94EB1
:108FB0000C460846B1682840084208D069467078D7
:108FC000FEF774FE002808D1009805408443B0687D
:108FD000044203D00120FFF755FFF8BD0542FCD045
:108FE0000020FFF74FFFF8BD70B59E4C82B0A0681F
:108FF000984E0025002819D0A56097488069C1B215
:10900000994800F067F9002806D0012100910190ED
:10901000F1686846884709E09348C1688068081A83
:10902000012803D10095F16868468847E069002867
:1090300003D0E5610320FFF725FF606A002809D00F
:1090400065628A4908680860022100910190F16810
:109050006846884702B070BDFFB581B004467D4DBB
:1090600000200A9E0F466860EA60002955D0B88843
:10907000396882B27C4800F01BF900284ED1B889CB
:10908000B96882B2754800F013F9002846D16078BB
:109090000121820076481218116022780023920084
:1090A000101803606C486278C26022784261E268FE
:1090B0004262277A6F4A002F02D00E27D76200E063
:1090C000D3626768022F05D0012F4ED03488002C60
:1090D00063D066E0A37801219F00654BFB181960FF
:1090E000A3780F469F40644B5F608B1E0361A3789B
:1090F0008360D06A0843D062E0780A468240AA6062
:10910000830003225A48120418180260E078814054
:109110003088002804D0FF280ED2072005B0F0BD0B
:10912000564B0A465648FEF710FD0028F6D16878DF
:109130000002FF30308001E0000A687069466878FC
:10914000FEF7B4FD0028E9D16878FEF739FD002864
:10915000E4D1E178012088400099084201D1012042
:1091600000E00020FFF78EFE2CE03788002F03D1AF
:109170002F7837807F1C2F7004260660394EB3602D
:10918000F361D36A0B43D362E2780261A278826012
:109190002F4881600160696014E02C783480641C81
:1091A0002C70042404602F4CA360E361D36A5B0835
:1091B0005B00D3620022D243826002612448816056
:1091C0000160696000212648C9438160A1218900AE
:1091D00041602C49042008602B4B04991A68FF2435
:1091E00024048907090EA24309040A431A60274987
:1091F0000860002005B0F0BD10B501461A4800F027
:109200007AF810BD10B50146144800F063F8044622
:109210000220FFF737FE204610BD10B5124800F0BF
:109220007BF8002802D10D4800F076F810BD0949FE
:109230004968002900D0012101600020704710B565
:10924000FF2825D20420FFF71DFE002010BD0000DE
:10925000002000407021002000250040902C0020BC
:109260000023004000210040802C0020802400408A
:10927000000700504025004000050050AB8F010062
:109280007121002080E200E000E400E000E100E065
:10929000064C000A6178884201D0072010BD0420E6
:1092A000FFF7F0FD6078FEF7D0FC10BD70210020C4
:1092B000002906D0002A02D0531E134203D00920F1
:1092C00070470E2070470160838000218160C1607B
:1092D00008467047C2688368D31A8288934208D8C8
:1092E000C36813400268D154C168491CC1600020A2
:1092F000704704207047C26883689A420AD0826827
:1093000083881A4003689A5C0A708168491C8160EE
:109310000020704705207047C168816000207047B9
:10932000FEB5054610460C46184373D0AE468C4633
:109330000020AD1A01469C4167D3664600270124F0
:109340003D46B61A9D4102D313463A46212465464E
:1093500076462F04360C3E432D0CB61A9D4104D39D
:10936000150C1B042B4312041034654676462F0659
:10937000360A3E432D0AB61A9D4104D3150E1B0230
:109380002B4312020834654676462F0736093E43C2
:109390002D09B61A9D4104D3150F1B012B43120151
:1093A000241D65467646AF07B6083E43AD08B61A9B
:1093B0009D4104D3950F9B002B439200A41C65464E
:1093C0007646EF0776083E436D08B61A9D411AD3DC
:1093D00092185B41641C16E00018764665464941C8
:1093E000B71A9D410191009009D36046B11A984186
:1093F0008E468446009801990025401C6941DD078E
:1094000052082A435B08641EE6D57246634603B0E1
:10941000F0BDFFE700200146C046C0462A4623466D
:10942000F5E7034610B50B439B070FD1042A0DD374
:1094300008C810C9121FA342F8D018BA21BA88422E
:1094400001D9012010BD0020C04310BD002A03D067
:10945000D30703D0521C07E0002010BD03780C781E
:10946000401C491C1B1B07D103780C78401C491C6D
:109470001B1B01D1921EF1D1184610BD30B5441C02
:1094800003E00178401C00290DD08107F9D10B4B76
:10949000DD0104C8D11A91432940FAD0001B0A0605
:1094A00003D0C01E30BD001B30BD0A0401D0801E99
:1094B00030BD0902FCD0401E30BD00000101010199
:1094C000F8B5042A2CD3830712D00B78491C0370FB
:1094D000401C521E83070BD00B78491C0370401CA4
:1094E000521E830704D00B78491C0370401C521E87
:1094F0008B079B0F05D0C91ADF002023DE1B08C98C
:109500000AE0FAF743FEF8BD1D4608C9FD401C46B7
:10951000B4402C4310C0121F042AF5D2F308C91A14
:10952000521EF0D40B78491C0370401C521EEAD422
:109530000B78491C0370401C012AE4D4097801709F
:10954000F8BD01E004C0091F0429FBD28B0701D537
:109550000280801CC90700D00270704700290BD020
:10956000C30702D00270401C491E022904D383079E
:1095700002D50280801C891EE3E70022EEE700226C
:10958000DFE7002203098B4273D3030A8B4258D3CF
:10959000030B8B423CD3030C8B4221D312E00346D6
:1095A0000B437FD4002243088B4274D303098B42C0
:1095B0005FD3030A8B4244D3030B8B4228D3030CA3
:1095C0008B420DD3FF22090212BA030C8B4202D345
:1095D0001212090265D0030B8B4219D300E0090A6D
:1095E000C30B8B4201D3CB03C01A5241830B8B4276
:1095F00001D38B03C01A5241430B8B4201D34B035F
:10960000C01A5241030B8B4201D30B03C01A5241C3
:10961000C30A8B4201D3CB02C01A5241830A8B4248
:1096200001D38B02C01A5241430A8B4201D34B0231
:10963000C01A5241030A8B4201D30B02C01A524195
:10964000CDD2C3098B4201D3CB01C01A5241830949
:109650008B4201D38B01C01A524143098B4201D383
:109660004B01C01A524103098B4201D30B01C01AAE
:109670005241C3088B4201D3CB00C01A5241830828
:109680008B4201D38B00C01A524143088B4201D355
:109690004B00C01A5241411A00D2014652411046B5
:1096A00070475DE0CA0F00D04942031000D340422A
:1096B000534000229C4603098B422DD3030A8B4260
:1096C00012D3FC22890112BA030A8B420CD38901FE
:1096D00092118B4208D3890192118B4204D38901E4
:1096E0003AD0921100E08909C3098B4201D3CB0122
:1096F000C01A524183098B4201D38B01C01A5241D7
:1097000043098B4201D34B01C01A524103098B42DA
:1097100001D30B01C01A5241C3088B4201D3CB00C5
:10972000C01A524183088B4201D38B00C01A5241A8
:10973000D9D243088B4201D34B00C01A5241411A7F
:1097400000D20146634652415B10104601D34042AD
:10975000002B00D54942704763465B1000D340425E
:1097600001B50020C046C04602BD70477047704733
:1097700010B5FF231B0644009C421DD84C009C42A0
:109780001AD80346124A0B4307D4401A02D3EFF308
:10979000008010BDEFF3008010BD081A06D2EFF371
:1097A000008001219043C907084302E0EFF30080E5
:1097B000904380F3008810BD0D231B041A4204D08F
:1097C0001146002000F006F810BD00F01BF810BD97
:1097D00000000090CA0211D54A03520F002A04D09B
:1097E000C803C043012188407047054AEFF3008158
:1097F00008010009104380F300887047002070477B
:109800000000003010B5024800F029F810BD00003B
:109810000000C07F754600F051F8AE46050069466D
:109820005346C008C000854618B020B5FAF7DAFCE8
:1098300060BC00274908B6460026C0C5C0C5C0C5E3
:10984000C0C5C0C5C0C5C0C5C0C5403D49008D46E6
:1098500070470446C046C0462046FAF770FC10B573
:109860000C461107090F092904D00A290AD0082932
:109870000CD104E011460820FFF7ACFF06E05106CA
:1098800006D501E0510601D50120C007214610BDD3
:10989000D10607D501010909CC084907000E0006C9
:1098A000044309E0410F20024907000A0143200E4A
:1098B00000061D22D14101430846E7E700487047F2
:1098C000A02C002001491820ABBEFEE726000200B4
:1098D000704770B58C180578401C6B075B0F01D181
:1098E0000378401C2A1106D10278401C03E0067858
:1098F000401C0E70491C5B1EF9D12B0705D40023B8
:10990000521E0DD40B70491CFAE70378401CCB1A89
:10991000921C03E01D780D70491C5B1C521EF9D58A
:10992000A142D8D3002070BD70B501250400ED0719
:109930004C4020D4441A01D2001B0919C60D4B001B
:10994000F2B2FF2A29D01B0E2CD000020C02D31A2F
:109950002C43DC402843051910D2280A02D3401CAE
:109960006D0611D0761EF6058019FF2A00DA70BD4B
:10997000C00DC00570BD694000F078F801200543B6
:10998000C541521C761CE8E764089C40C90161404F
:109990008900E7D10124A043E4E71B0E440200D074
:1099A000034870BD002AFCD1C00FC00770BD00BFC6
:1099B0000000C07F01230200DB050A430DD4DA4218
:1099C00003D49A4207D488427047D84214D4D9426B
:1099D00012D48842704780427047DA4203D59A42D7
:1099E000F9D5814270475B004200DA4204D24A0056
:1099F000DA4201D28142704710B5024AFFF7B8FE41
:109A000010BD00BF0900160401230A00DB05024354
:109A10000DD4DA4203D49A4207D481427047D94226
:109A200014D4D84212D48142704789427047DA4236
:109A300003D59A42F9D5884270475B004A00DA4262
:109A400004D24200DA4201D2884270474840414085
:109A500010B5024A4840FFF78BFE10BD09001604FE
:109A600070B501250400ED074C4022D4441A02D2FF
:109A70006C40001B0919C60D4B00F2B2FF2A4BD0F7
:109A80001B0E50D000020C02D31A2C43DC40A8431A
:109A9000051B05D5AD0019D36D08761E521E37D0B3
:109AA000F605280A01D2801970BD70416D0603D0F9
:109AB00070BD6940FFF73EFF9C40090261404900CC
:109AC00001D0401E70BD0124A04370BD6D081DD0A3
:109AD00001202B0C01D12D0410302B0E01D12D02B1
